{"abi":[{"type":"constructor","inputs":[],"stateMutability":"nonpayable"},{"type":"function","name":"addAdmin","inputs":[{"name":"_admin","type":"address","internalType":"address"}],"outputs":[],"stateMutability":"nonpayable"},{"type":"function","name":"admins","inputs":[{"name":"","type":"address","internalType":"address"}],"outputs":[{"name":"","type":"bool","internalType":"bool"}],"stateMutability":"view"},{"type":"function","name":"certificates","inputs":[{"name":"","type":"string","internalType":"string"}],"outputs":[{"name":"studentName","type":"string","internalType":"string"},{"name":"registrationNumber","type":"string","internalType":"string"},{"name":"course","type":"string","internalType":"string"},{"name":"grade","type":"string","internalType":"string"},{"name":"certificateHash","type":"string","internalType":"string"},{"name":"ipfsHash","type":"string","internalType":"string"},{"name":"issuedAt","type":"uint256","internalType":"uint256"},{"name":"issuer","type":"address","internalType":"address"},{"name":"revoked","type":"bool","internalType":"bool"}],"stateMutability":"view"},{"type":"function","name":"getCertificate","inputs":[{"name":"_certificateHash","type":"string","internalType":"string"}],"outputs":[{"name":"","type":"tuple","internalType":"struct CertificateRegistry.Certificate","components":[{"name":"studentName","type":"string","internalType":"string"},{"name":"registrationNumber","type":"string","internalType":"string"},{"name":"course","type":"string","internalType":"string"},{"name":"grade","type":"string","internalType":"string"},{"name":"certificateHash","type":"string","internalType":"string"},{"name":"ipfsHash","type":"string","internalType":"string"},{"name":"issuedAt","type":"uint256","internalType":"uint256"},{"name":"issuer","type":"address","internalType":"address"},{"name":"revoked","type":"bool","internalType":"bool"}]}],"stateMutability":"view"},{"type":"function","name":"isAdmin","inputs":[{"name":"_user","type":"address","internalType":"address"}],"outputs":[{"name":"","type":"bool","internalType":"bool"}],"stateMutability":"view"},{"type":"function","name":"issueCertificate","inputs":[{"name":"_studentName","type":"string","internalType":"string"},{"name":"_registrationNumber","type":"string","internalType":"string"},{"name":"_course","type":"string","internalType":"string"},{"name":"_grade","type":"string","internalType":"string"},{"name":"_certificateHash","type":"string","internalType":"string"},{"name":"_ipfsHash","type":"string","internalType":"string"}],"outputs":[],"stateMutability":"nonpayable"},{"type":"function","name":"owner","inputs":[],"outputs":[{"name":"","type":"address","internalType":"address"}],"stateMutability":"view"},{"type":"function","name":"pauseContract","inputs":[],"outputs":[],"stateMutability":"nonpayable"},{"type":"function","name":"paused","inputs":[],"outputs":[{"name":"","type":"bool","internalType":"bool"}],"stateMutability":"view"},{"type":"function","name":"removeAdmin","inputs":[{"name":"_admin","type":"address","internalType":"address"}],"outputs":[],"stateMutability":"nonpayable"},{"type":"function","name":"revokeCertificate","inputs":[{"name":"_certificateHash","type":"string","internalType":"string"}],"outputs":[],"stateMutability":"nonpayable"},{"type":"function","name":"totalAdmins","inputs":[],"outputs":[{"name":"","type":"uint256","internalType":"uint256"}],"stateMutability":"view"},{"type":"function","name":"totalCertificates","inputs":[],"outputs":[{"name":"","type":"uint256","internalType":"uint256"}],"stateMutability":"view"},{"type":"function","name":"totalRevokedCertificates","inputs":[],"outputs":[{"name":"","type":"uint256","internalType":"uint256"}],"stateMutability":"view"},{"type":"function","name":"unpauseContract","inputs":[],"outputs":[],"stateMutability":"nonpayable"},{"type":"function","name":"verifyCertificate","inputs":[{"name":"_certificateHash","type":"string","internalType":"string"}],"outputs":[{"name":"","type":"bool","internalType":"bool"}],"stateMutability":"view"}],"bytecode":{"object":"0x6080604052348015600e575f5ffd5b50335f5f6101000a81548173ffffffffffffffffffffffffffffffffffffffff021916908373ffffffffffffffffffffffffffffffffffffffff160217905550600160055f3373ffffffffffffffffffffffffffffffffffffffff1673ffffffffffffffffffffffffffffffffffffffff1681526020019081526020015f205f6101000a81548160ff021916908315150217905550600160028190555061275b806100b85f395ff3fe608060405234801561000f575f5ffd5b50600436106100fe575f3560e01c80638b23d87511610095578063b33712c511610064578063b33712c51461029e578063e070a485146102a8578063eb68048b146102c6578063ed0f2e75146102e4576100fe565b80638b23d875146101fc5780638da5cb5b1461022c5780638f2b91ea1461024a57806394973c9714610282576100fe565b8063439766ce116100d1578063439766ce1461019a578063596b772f146101a45780635c975abb146101c257806370480275146101e0576100fe565b8063142e1542146101025780631785f53c1461011e57806324d7806c1461013a578063429b62e51461016a575b5f5ffd5b61011c60048036038101906101179190611aae565b610314565b005b61013860048036038101906101339190611b4f565b6104c3565b005b610154600480360381019061014f9190611b4f565b610648565b6040516101619190611b94565b60405180910390f35b610184600480360381019061017f9190611b4f565b61069a565b6040516101919190611b94565b60405180910390f35b6101a26106b7565b005b6101ac610761565b6040516101b99190611bc5565b60405180910390f35b6101ca610767565b6040516101d79190611b94565b60405180910390f35b6101fa60048036038101906101f59190611b4f565b610779565b005b61021660048036038101906102119190611aae565b610900565b6040516102239190611b94565b60405180910390f35b610234610d9d565b6040516102419190611bed565b60405180910390f35b610264600480360381019061025f9190611aae565b610dc1565b60405161027999989796959493929190611c66565b60405180910390f35b61029c60048036038101906102979190611d1b565b611173565b005b6102a6611439565b005b6102b06114e2565b6040516102bd9190611bc5565b60405180910390f35b6102ce6114e8565b6040516102db9190611bc5565b60405180910390f35b6102fe60048036038101906102f99190611aae565b6114ee565b60405161030b9190611fa6565b60405180910390f35b60055f3373ffffffffffffffffffffffffffffffffffffffff1673ffffffffffffffffffffffffffffffffffffffff1681526020019081526020015f205f9054906101000a900460ff1661039d576040517f08c379a000000000000000000000000000000000000000000000000000000000815260040161039490612010565b60405180910390fd5b5f6004826040516103ae9190612068565b90815260200160405180910390206006015403610400576040517f08c379a00000000000000000000000000000000000000000000000000000000081526004016103f7906120c8565b60405180910390fd5b6004816040516104109190612068565b908152602001604051809103902060070160149054906101000a900460ff161561046f576040517f08c379a000000000000000000000000000000000000000000000000000000000815260040161046690612130565b60405180910390fd5b60016004826040516104819190612068565b908152602001604051809103902060070160146101000a81548160ff02191690831515021790555060035f8154809291906104bb9061217b565b919050555050565b5f5f9054906101000a900473ffffffffffffffffffffffffffffffffffffffff1673ffffffffffffffffffffffffffffffffffffffff163373ffffffffffffffffffffffffffffffffffffffff1614610551576040517f08c379a00000000000000000000000000000000000000000000000000000000081526004016105489061220c565b60405180910390fd5b60055f8273ffffffffffffffffffffffffffffffffffffffff1673ffffffffffffffffffffffffffffffffffffffff1681526020019081526020015f205f9054906101000a900460ff166105da576040517f08c379a00000000000000000000000000000000000000000000000000000000081526004016105d190612274565b60405180910390fd5b5f60055f8373ffffffffffffffffffffffffffffffffffffffff1673ffffffffffffffffffffffffffffffffffffffff1681526020019081526020015f205f6101000a81548160ff02191690831515021790555060025f81548092919061064090612292565b919050555050565b5f60055f8373ffffffffffffffffffffffffffffffffffffffff1673ffffffffffffffffffffffffffffffffffffffff1681526020019081526020015f205f9054906101000a900460ff169050919050565b6005602052805f5260405f205f915054906101000a900460ff1681565b5f5f9054906101000a900473ffffffffffffffffffffffffffffffffffffffff1673ffffffffffffffffffffffffffffffffffffffff163373ffffffffffffffffffffffffffffffffffffffff1614610745576040517f08c379a000000000000000000000000000000000000000000000000000000000815260040161073c9061220c565b60405180910390fd5b60015f60146101000a81548160ff021916908315150217905550565b60015481565b5f60149054906101000a900460ff1681565b5f5f9054906101000a900473ffffffffffffffffffffffffffffffffffffffff1673ffffffffffffffffffffffffffffffffffffffff163373ffffffffffffffffffffffffffffffffffffffff1614610807576040517f08c379a00000000000000000000000000000000000000000000000000000000081526004016107fe9061220c565b60405180910390fd5b60055f8273ffffffffffffffffffffffffffffffffffffffff1673ffffffffffffffffffffffffffffffffffffffff1681526020019081526020015f205f9054906101000a900460ff1615610891576040517f08c379a000000000000000000000000000000000000000000000000000000000815260040161088890612303565b60405180910390fd5b600160055f8373ffffffffffffffffffffffffffffffffffffffff1673ffffffffffffffffffffffffffffffffffffffff1681526020019081526020015f205f6101000a81548160ff02191690831515021790555060025f8154809291906108f89061217b565b919050555050565b5f5f6004836040516109129190612068565b9081526020016040518091039020604051806101200160405290815f8201805461093b9061234e565b80601f01602080910402602001604051908101604052809291908181526020018280546109679061234e565b80156109b25780601f10610989576101008083540402835291602001916109b2565b820191905f5260205f20905b81548152906001019060200180831161099557829003601f168201915b505050505081526020016001820180546109cb9061234e565b80601f01602080910402602001604051908101604052809291908181526020018280546109f79061234e565b8015610a425780601f10610a1957610100808354040283529160200191610a42565b820191905f5260205f20905b815481529060010190602001808311610a2557829003601f168201915b50505050508152602001600282018054610a5b9061234e565b80601f0160208091040260200160405190810160405280929190818152602001828054610a879061234e565b8015610ad25780601f10610aa957610100808354040283529160200191610ad2565b820191905f5260205f20905b815481529060010190602001808311610ab557829003601f168201915b50505050508152602001600382018054610aeb9061234e565b80601f0160208091040260200160405190810160405280929190818152602001828054610b179061234e565b8015610b625780601f10610b3957610100808354040283529160200191610b62565b820191905f5260205f20905b815481529060010190602001808311610b4557829003601f168201915b50505050508152602001600482018054610b7b9061234e565b80601f0160208091040260200160405190810160405280929190818152602001828054610ba79061234e565b8015610bf25780601f10610bc957610100808354040283529160200191610bf2565b820191905f5260205f20905b815481529060010190602001808311610bd557829003601f168201915b50505050508152602001600582018054610c0b9061234e565b80601f0160208091040260200160405190810160405280929190818152602001828054610c379061234e565b8015610c825780601f10610c5957610100808354040283529160200191610c82565b820191905f5260205f20905b815481529060010190602001808311610c6557829003601f168201915b5050505050815260200160068201548152602001600782015f9054906101000a900473ffffffffffffffffffffffffffffffffffffffff1673ffffffffffffffffffffffffffffffffffffffff1673ffffffffffffffffffffffffffffffffffffffff1681526020016007820160149054906101000a900460ff16151515158152505090505f8160c0015103610d4d576040517f08c379a0000000000000000000000000000000000000000000000000000000008152600401610d44906120c8565b60405180910390fd5b80610100015115610d93576040517f08c379a0000000000000000000000000000000000000000000000000000000008152600401610d8a906123c8565b60405180910390fd5b6001915050919050565b5f5f9054906101000a900473ffffffffffffffffffffffffffffffffffffffff1681565b6004818051602081018201805184825260208301602085012081835280955050505050505f91509050805f018054610df89061234e565b80601f0160208091040260200160405190810160405280929190818152602001828054610e249061234e565b8015610e6f5780601f10610e4657610100808354040283529160200191610e6f565b820191905f5260205f20905b815481529060010190602001808311610e5257829003601f168201915b505050505090806001018054610e849061234e565b80601f0160208091040260200160405190810160405280929190818152602001828054610eb09061234e565b8015610efb5780601f10610ed257610100808354040283529160200191610efb565b820191905f5260205f20905b815481529060010190602001808311610ede57829003601f168201915b505050505090806002018054610f109061234e565b80601f0160208091040260200160405190810160405280929190818152602001828054610f3c9061234e565b8015610f875780601f10610f5e57610100808354040283529160200191610f87565b820191905f5260205f20905b815481529060010190602001808311610f6a57829003601f168201915b505050505090806003018054610f9c9061234e565b80601f0160208091040260200160405190810160405280929190818152602001828054610fc89061234e565b80156110135780601f10610fea57610100808354040283529160200191611013565b820191905f5260205f20905b815481529060010190602001808311610ff657829003601f168201915b5050505050908060040180546110289061234e565b80601f01602080910402602001604051908101604052809291908181526020018280546110549061234e565b801561109f5780601f106110765761010080835404028352916020019161109f565b820191905f5260205f20905b81548152906001019060200180831161108257829003601f168201915b5050505050908060050180546110b49061234e565b80601f01602080910402602001604051908101604052809291908181526020018280546110e09061234e565b801561112b5780601f106111025761010080835404028352916020019161112b565b820191905f5260205f20905b81548152906001019060200180831161110e57829003601f168201915b505050505090806006015490806007015f9054906101000a900473ffffffffffffffffffffffffffffffffffffffff16908060070160149054906101000a900460ff16905089565b60055f3373ffffffffffffffffffffffffffffffffffffffff1673ffffffffffffffffffffffffffffffffffffffff1681526020019081526020015f205f9054906101000a900460ff166111fc576040517f08c379a00000000000000000000000000000000000000000000000000000000081526004016111f390612010565b60405180910390fd5b5f60149054906101000a900460ff161561124b576040517f08c379a000000000000000000000000000000000000000000000000000000000815260040161124290612430565b60405180910390fd5b5f60048360405161125c9190612068565b908152602001604051809103902060060154146112ae576040517f08c379a00000000000000000000000000000000000000000000000000000000081526004016112a590612498565b60405180910390fd5b6040518061012001604052808781526020018681526020018581526020018481526020018381526020018281526020014281526020013373ffffffffffffffffffffffffffffffffffffffff1681526020015f15158152506004836040516113169190612068565b90815260200160405180910390205f820151815f0190816113379190612656565b50602082015181600101908161134d9190612656565b5060408201518160020190816113639190612656565b5060608201518160030190816113799190612656565b50608082015181600401908161138f9190612656565b5060a08201518160050190816113a59190612656565b5060c0820151816006015560e0820151816007015f6101000a81548173ffffffffffffffffffffffffffffffffffffffff021916908373ffffffffffffffffffffffffffffffffffffffff1602179055506101008201518160070160146101000a81548160ff02191690831515021790555090505060015f81548092919061142c9061217b565b9190505550505050505050565b5f5f9054906101000a900473ffffffffffffffffffffffffffffffffffffffff1673ffffffffffffffffffffffffffffffffffffffff163373ffffffffffffffffffffffffffffffffffffffff16146114c7576040517f08c379a00000000000000000000000000000000000000000000000000000000081526004016114be9061220c565b60405180910390fd5b5f5f60146101000a81548160ff021916908315150217905550565b60035481565b60025481565b6114f6611900565b6004826040516115069190612068565b9081526020016040518091039020604051806101200160405290815f8201805461152f9061234e565b80601f016020809104026020016040519081016040528092919081815260200182805461155b9061234e565b80156115a65780601f1061157d576101008083540402835291602001916115a6565b820191905f5260205f20905b81548152906001019060200180831161158957829003601f168201915b505050505081526020016001820180546115bf9061234e565b80601f01602080910402602001604051908101604052809291908181526020018280546115eb9061234e565b80156116365780601f1061160d57610100808354040283529160200191611636565b820191905f5260205f20905b81548152906001019060200180831161161957829003601f168201915b5050505050815260200160028201805461164f9061234e565b80601f016020809104026020016040519081016040528092919081815260200182805461167b9061234e565b80156116c65780601f1061169d576101008083540402835291602001916116c6565b820191905f5260205f20905b8154815290600101906020018083116116a957829003601f168201915b505050505081526020016003820180546116df9061234e565b80601f016020809104026020016040519081016040528092919081815260200182805461170b9061234e565b80156117565780601f1061172d57610100808354040283529160200191611756565b820191905f5260205f20905b81548152906001019060200180831161173957829003601f168201915b5050505050815260200160048201805461176f9061234e565b80601f016020809104026020016040519081016040528092919081815260200182805461179b9061234e565b80156117e65780601f106117bd576101008083540402835291602001916117e6565b820191905f5260205f20905b8154815290600101906020018083116117c957829003601f168201915b505050505081526020016005820180546117ff9061234e565b80601f016020809104026020016040519081016040528092919081815260200182805461182b9061234e565b80156118765780601f1061184d57610100808354040283529160200191611876565b820191905f5260205f20905b81548152906001019060200180831161185957829003601f168201915b5050505050815260200160068201548152602001600782015f9054906101000a900473ffffffffffffffffffffffffffffffffffffffff1673ffffffffffffffffffffffffffffffffffffffff1673ffffffffffffffffffffffffffffffffffffffff1681526020016007820160149054906101000a900460ff1615151515815250509050919050565b6040518061012001604052806060815260200160608152602001606081526020016060815260200160608152602001606081526020015f81526020015f73ffffffffffffffffffffffffffffffffffffffff1681526020015f151581525090565b5f604051905090565b5f5ffd5b5f5ffd5b5f5ffd5b5f5ffd5b5f601f19601f8301169050919050565b7f4e487b71000000000000000000000000000000000000000000000000000000005f52604160045260245ffd5b6119c08261197a565b810181811067ffffffffffffffff821117156119df576119de61198a565b5b80604052505050565b5f6119f1611961565b90506119fd82826119b7565b919050565b5f67ffffffffffffffff821115611a1c57611a1b61198a565b5b611a258261197a565b9050602081019050919050565b828183375f83830152505050565b5f611a52611a4d84611a02565b6119e8565b905082815260208101848484011115611a6e57611a6d611976565b5b611a79848285611a32565b509392505050565b5f82601f830112611a9557611a94611972565b5b8135611aa5848260208601611a40565b91505092915050565b5f60208284031215611ac357611ac261196a565b5b5f82013567ffffffffffffffff811115611ae057611adf61196e565b5b611aec84828501611a81565b91505092915050565b5f73ffffffffffffffffffffffffffffffffffffffff82169050919050565b5f611b1e82611af5565b9050919050565b611b2e81611b14565b8114611b38575f5ffd5b50565b5f81359050611b4981611b25565b92915050565b5f60208284031215611b6457611b6361196a565b5b5f611b7184828501611b3b565b91505092915050565b5f8115159050919050565b611b8e81611b7a565b82525050565b5f602082019050611ba75f830184611b85565b92915050565b5f819050919050565b611bbf81611bad565b82525050565b5f602082019050611bd85f830184611bb6565b92915050565b611be781611b14565b82525050565b5f602082019050611c005f830184611bde565b92915050565b5f81519050919050565b5f82825260208201905092915050565b8281835e5f83830152505050565b5f611c3882611c06565b611c428185611c10565b9350611c52818560208601611c20565b611c5b8161197a565b840191505092915050565b5f610120820190508181035f830152611c7f818c611c2e565b90508181036020830152611c93818b611c2e565b90508181036040830152611ca7818a611c2e565b90508181036060830152611cbb8189611c2e565b90508181036080830152611ccf8188611c2e565b905081810360a0830152611ce38187611c2e565b9050611cf260c0830186611bb6565b611cff60e0830185611bde565b611d0d610100830184611b85565b9a9950505050505050505050565b5f5f5f5f5f5f60c08789031215611d3557611d3461196a565b5b5f87013567ffffffffffffffff811115611d5257611d5161196e565b5b611d5e89828a01611a81565b965050602087013567ffffffffffffffff811115611d7f57611d7e61196e565b5b611d8b89828a01611a81565b955050604087013567ffffffffffffffff811115611dac57611dab61196e565b5b611db889828a01611a81565b945050606087013567ffffffffffffffff811115611dd957611dd861196e565b5b611de589828a01611a81565b935050608087013567ffffffffffffffff811115611e0657611e0561196e565b5b611e1289828a01611a81565b92505060a087013567ffffffffffffffff811115611e3357611e3261196e565b5b611e3f89828a01611a81565b9150509295509295509295565b5f82825260208201905092915050565b5f611e6682611c06565b611e708185611e4c565b9350611e80818560208601611c20565b611e898161197a565b840191505092915050565b611e9d81611bad565b82525050565b611eac81611b14565b82525050565b611ebb81611b7a565b82525050565b5f61012083015f8301518482035f860152611edc8282611e5c565b91505060208301518482036020860152611ef68282611e5c565b91505060408301518482036040860152611f108282611e5c565b91505060608301518482036060860152611f2a8282611e5c565b91505060808301518482036080860152611f448282611e5c565b91505060a083015184820360a0860152611f5e8282611e5c565b91505060c0830151611f7360c0860182611e94565b5060e0830151611f8660e0860182611ea3565b50610100830151611f9b610100860182611eb2565b508091505092915050565b5f6020820190508181035f830152611fbe8184611ec1565b905092915050565b7f4f6e6c792061646d696e000000000000000000000000000000000000000000005f82015250565b5f611ffa600a83611c10565b915061200582611fc6565b602082019050919050565b5f6020820190508181035f83015261202781611fee565b9050919050565b5f81905092915050565b5f61204282611c06565b61204c818561202e565b935061205c818560208601611c20565b80840191505092915050565b5f6120738284612038565b915081905092915050565b7f4e6f7420666f756e6400000000000000000000000000000000000000000000005f82015250565b5f6120b2600983611c10565b91506120bd8261207e565b602082019050919050565b5f6020820190508181035f8301526120df816120a6565b9050919050565b7f416c7265616479207265766f6b656400000000000000000000000000000000005f82015250565b5f61211a600f83611c10565b9150612125826120e6565b602082019050919050565b5f6020820190508181035f8301526121478161210e565b9050919050565b7f4e487b71000000000000000000000000000000000000000000000000000000005f52601160045260245ffd5b5f61218582611bad565b91507fffffffffffffffffffffffffffffffffffffffffffffffffffffffffffffffff82036121b7576121b661214e565b5b600182019050919050565b7f4f6e6c79206f776e6572000000000000000000000000000000000000000000005f82015250565b5f6121f6600a83611c10565b9150612201826121c2565b602082019050919050565b5f6020820190508181035f830152612223816121ea565b9050919050565b7f4e6f742061646d696e00000000000000000000000000000000000000000000005f82015250565b5f61225e600983611c10565b91506122698261222a565b602082019050919050565b5f6020820190508181035f83015261228b81612252565b9050919050565b5f61229c82611bad565b91505f82036122ae576122ad61214e565b5b600182039050919050565b7f416c72656164792061646d696e000000000000000000000000000000000000005f82015250565b5f6122ed600d83611c10565b91506122f8826122b9565b602082019050919050565b5f6020820190508181035f83015261231a816122e1565b9050919050565b7f4e487b71000000000000000000000000000000000000000000000000000000005f52602260045260245ffd5b5f600282049050600182168061236557607f821691505b60208210810361237857612377612321565b5b50919050565b7f5265766f6b6564000000000000000000000000000000000000000000000000005f82015250565b5f6123b2600783611c10565b91506123bd8261237e565b602082019050919050565b5f6020820190508181035f8301526123df816123a6565b9050919050565b7f50617573656400000000000000000000000000000000000000000000000000005f82015250565b5f61241a600683611c10565b9150612425826123e6565b602082019050919050565b5f6020820190508181035f8301526124478161240e565b9050919050565b7f45786973747300000000000000000000000000000000000000000000000000005f82015250565b5f612482600683611c10565b915061248d8261244e565b602082019050919050565b5f6020820190508181035f8301526124af81612476565b9050919050565b5f819050815f5260205f209050919050565b5f6020601f8301049050919050565b5f82821b905092915050565b5f600883026125127fffffffffffffffffffffffffffffffffffffffffffffffffffffffffffffffff826124d7565b61251c86836124d7565b95508019841693508086168417925050509392505050565b5f819050919050565b5f61255761255261254d84611bad565b612534565b611bad565b9050919050565b5f819050919050565b6125708361253d565b61258461257c8261255e565b8484546124e3565b825550505050565b5f5f905090565b61259b61258c565b6125a6818484612567565b505050565b5b818110156125c9576125be5f82612593565b6001810190506125ac565b5050565b601f82111561260e576125df816124b6565b6125e8846124c8565b810160208510156125f7578190505b61260b612603856124c8565b8301826125ab565b50505b505050565b5f82821c905092915050565b5f61262e5f1984600802612613565b1980831691505092915050565b5f612646838361261f565b9150826002028217905092915050565b61265f82611c06565b67ffffffffffffffff8111156126785761267761198a565b5b612682825461234e565b61268d8282856125cd565b5f60209050601f8311600181146126be575f84156126ac578287015190505b6126b6858261263b565b86555061271d565b601f1984166126cc866124b6565b5f5b828110156126f3578489015182556001820191506020850194506020810190506126ce565b86831015612710578489015161270c601f89168261261f565b8355505b6001600288020188555050505b50505050505056fea26469706673582212202051d0d6143b6cb4dcfb2051be535679b37036f208710bbe78274a3003181c9464736f6c634300081b0033","linkReferences":{}},"methodIdentifiers":{"addAdmin(address)":"70480275","admins(address)":"429b62e5","certificates(string)":"8f2b91ea","getCertificate(string)":"ed0f2e75","isAdmin(address)":"24d7806c","issueCertificate(string,string,string,string,string,string)":"94973c97","owner()":"8da5cb5b","pauseContract()":"439766ce","paused()":"5c975abb","removeAdmin(address)":"1785f53c","revokeCertificate(string)":"142e1542","totalAdmins()":"eb68048b","totalCertificates()":"596b772f","totalRevokedCertificates()":"e070a485","unpauseContract()":"b33712c5","verifyCertificate(string)":"8b23d875"},"id":0}